{
  "_format": "hh-sol-artifact-1",
  "contractName": "NarutoNFT",
  "sourceName": "contracts/NarutoNFT.sol",
  "abi": [
    {
      "inputs": [],
      "stateMutability": "payable",
      "type": "constructor"
    },
    {
      "inputs": [
        {
          "internalType": "address",
          "name": "sender",
          "type": "address"
        },
        {
          "internalType": "uint256",
          "name": "tokenId",
          "type": "uint256"
        },
        {
          "internalType": "address",
          "name": "owner",
          "type": "address"
        }
      ],
      "name": "ERC721IncorrectOwner",
      "type": "error"
    },
    {
      "inputs": [
        {
          "internalType": "address",
          "name": "operator",
          "type": "address"
        },
        {
          "internalType": "uint256",
          "name": "tokenId",
          "type": "uint256"
        }
      ],
      "name": "ERC721InsufficientApproval",
      "type": "error"
    },
    {
      "inputs": [
        {
          "internalType": "address",
          "name": "approver",
          "type": "address"
        }
      ],
      "name": "ERC721InvalidApprover",
      "type": "error"
    },
    {
      "inputs": [
        {
          "internalType": "address",
          "name": "operator",
          "type": "address"
        }
      ],
      "name": "ERC721InvalidOperator",
      "type": "error"
    },
    {
      "inputs": [
        {
          "internalType": "address",
          "name": "owner",
          "type": "address"
        }
      ],
      "name": "ERC721InvalidOwner",
      "type": "error"
    },
    {
      "inputs": [
        {
          "internalType": "address",
          "name": "receiver",
          "type": "address"
        }
      ],
      "name": "ERC721InvalidReceiver",
      "type": "error"
    },
    {
      "inputs": [
        {
          "internalType": "address",
          "name": "sender",
          "type": "address"
        }
      ],
      "name": "ERC721InvalidSender",
      "type": "error"
    },
    {
      "inputs": [
        {
          "internalType": "uint256",
          "name": "tokenId",
          "type": "uint256"
        }
      ],
      "name": "ERC721NonexistentToken",
      "type": "error"
    },
    {
      "inputs": [
        {
          "internalType": "address",
          "name": "owner",
          "type": "address"
        }
      ],
      "name": "OwnableInvalidOwner",
      "type": "error"
    },
    {
      "inputs": [
        {
          "internalType": "address",
          "name": "account",
          "type": "address"
        }
      ],
      "name": "OwnableUnauthorizedAccount",
      "type": "error"
    },
    {
      "anonymous": false,
      "inputs": [
        {
          "indexed": true,
          "internalType": "address",
          "name": "owner",
          "type": "address"
        },
        {
          "indexed": true,
          "internalType": "address",
          "name": "approved",
          "type": "address"
        },
        {
          "indexed": true,
          "internalType": "uint256",
          "name": "tokenId",
          "type": "uint256"
        }
      ],
      "name": "Approval",
      "type": "event"
    },
    {
      "anonymous": false,
      "inputs": [
        {
          "indexed": true,
          "internalType": "address",
          "name": "owner",
          "type": "address"
        },
        {
          "indexed": true,
          "internalType": "address",
          "name": "operator",
          "type": "address"
        },
        {
          "indexed": false,
          "internalType": "bool",
          "name": "approved",
          "type": "bool"
        }
      ],
      "name": "ApprovalForAll",
      "type": "event"
    },
    {
      "anonymous": false,
      "inputs": [
        {
          "indexed": false,
          "internalType": "uint256",
          "name": "_fromTokenId",
          "type": "uint256"
        },
        {
          "indexed": false,
          "internalType": "uint256",
          "name": "_toTokenId",
          "type": "uint256"
        }
      ],
      "name": "BatchMetadataUpdate",
      "type": "event"
    },
    {
      "anonymous": false,
      "inputs": [
        {
          "indexed": false,
          "internalType": "uint256",
          "name": "_tokenId",
          "type": "uint256"
        }
      ],
      "name": "MetadataUpdate",
      "type": "event"
    },
    {
      "anonymous": false,
      "inputs": [
        {
          "indexed": true,
          "internalType": "address",
          "name": "previousOwner",
          "type": "address"
        },
        {
          "indexed": true,
          "internalType": "address",
          "name": "newOwner",
          "type": "address"
        }
      ],
      "name": "OwnershipTransferred",
      "type": "event"
    },
    {
      "anonymous": false,
      "inputs": [
        {
          "indexed": true,
          "internalType": "address",
          "name": "from",
          "type": "address"
        },
        {
          "indexed": true,
          "internalType": "address",
          "name": "to",
          "type": "address"
        },
        {
          "indexed": true,
          "internalType": "uint256",
          "name": "tokenId",
          "type": "uint256"
        }
      ],
      "name": "Transfer",
      "type": "event"
    },
    {
      "inputs": [
        {
          "internalType": "address",
          "name": "to",
          "type": "address"
        },
        {
          "internalType": "uint256",
          "name": "tokenId",
          "type": "uint256"
        }
      ],
      "name": "approve",
      "outputs": [],
      "stateMutability": "nonpayable",
      "type": "function"
    },
    {
      "inputs": [
        {
          "internalType": "address",
          "name": "owner",
          "type": "address"
        }
      ],
      "name": "balanceOf",
      "outputs": [
        {
          "internalType": "uint256",
          "name": "",
          "type": "uint256"
        }
      ],
      "stateMutability": "view",
      "type": "function"
    },
    {
      "inputs": [
        {
          "internalType": "uint256",
          "name": "tokenId",
          "type": "uint256"
        }
      ],
      "name": "getApproved",
      "outputs": [
        {
          "internalType": "address",
          "name": "",
          "type": "address"
        }
      ],
      "stateMutability": "view",
      "type": "function"
    },
    {
      "inputs": [
        {
          "internalType": "address",
          "name": "owner",
          "type": "address"
        },
        {
          "internalType": "address",
          "name": "operator",
          "type": "address"
        }
      ],
      "name": "isApprovedForAll",
      "outputs": [
        {
          "internalType": "bool",
          "name": "",
          "type": "bool"
        }
      ],
      "stateMutability": "view",
      "type": "function"
    },
    {
      "inputs": [],
      "name": "isPublicMintEnabled",
      "outputs": [
        {
          "internalType": "bool",
          "name": "",
          "type": "bool"
        }
      ],
      "stateMutability": "view",
      "type": "function"
    },
    {
      "inputs": [],
      "name": "maxPerWallet",
      "outputs": [
        {
          "internalType": "uint256",
          "name": "",
          "type": "uint256"
        }
      ],
      "stateMutability": "view",
      "type": "function"
    },
    {
      "inputs": [],
      "name": "maxSupply",
      "outputs": [
        {
          "internalType": "uint256",
          "name": "",
          "type": "uint256"
        }
      ],
      "stateMutability": "view",
      "type": "function"
    },
    {
      "inputs": [
        {
          "internalType": "uint256",
          "name": "quantity_",
          "type": "uint256"
        }
      ],
      "name": "mint",
      "outputs": [],
      "stateMutability": "payable",
      "type": "function"
    },
    {
      "inputs": [],
      "name": "mintPrice",
      "outputs": [
        {
          "internalType": "uint256",
          "name": "",
          "type": "uint256"
        }
      ],
      "stateMutability": "view",
      "type": "function"
    },
    {
      "inputs": [],
      "name": "name",
      "outputs": [
        {
          "internalType": "string",
          "name": "",
          "type": "string"
        }
      ],
      "stateMutability": "view",
      "type": "function"
    },
    {
      "inputs": [],
      "name": "owner",
      "outputs": [
        {
          "internalType": "address",
          "name": "",
          "type": "address"
        }
      ],
      "stateMutability": "view",
      "type": "function"
    },
    {
      "inputs": [
        {
          "internalType": "uint256",
          "name": "tokenId",
          "type": "uint256"
        }
      ],
      "name": "ownerOf",
      "outputs": [
        {
          "internalType": "address",
          "name": "",
          "type": "address"
        }
      ],
      "stateMutability": "view",
      "type": "function"
    },
    {
      "inputs": [],
      "name": "renounceOwnership",
      "outputs": [],
      "stateMutability": "nonpayable",
      "type": "function"
    },
    {
      "inputs": [
        {
          "internalType": "address",
          "name": "from",
          "type": "address"
        },
        {
          "internalType": "address",
          "name": "to",
          "type": "address"
        },
        {
          "internalType": "uint256",
          "name": "tokenId",
          "type": "uint256"
        }
      ],
      "name": "safeTransferFrom",
      "outputs": [],
      "stateMutability": "nonpayable",
      "type": "function"
    },
    {
      "inputs": [
        {
          "internalType": "address",
          "name": "from",
          "type": "address"
        },
        {
          "internalType": "address",
          "name": "to",
          "type": "address"
        },
        {
          "internalType": "uint256",
          "name": "tokenId",
          "type": "uint256"
        },
        {
          "internalType": "bytes",
          "name": "data",
          "type": "bytes"
        }
      ],
      "name": "safeTransferFrom",
      "outputs": [],
      "stateMutability": "nonpayable",
      "type": "function"
    },
    {
      "inputs": [
        {
          "internalType": "address",
          "name": "operator",
          "type": "address"
        },
        {
          "internalType": "bool",
          "name": "approved",
          "type": "bool"
        }
      ],
      "name": "setApprovalForAll",
      "outputs": [],
      "stateMutability": "nonpayable",
      "type": "function"
    },
    {
      "inputs": [
        {
          "internalType": "string",
          "name": "baseTokenUri_",
          "type": "string"
        }
      ],
      "name": "setBaseTokenUri",
      "outputs": [],
      "stateMutability": "nonpayable",
      "type": "function"
    },
    {
      "inputs": [
        {
          "internalType": "bool",
          "name": "isPublicMintEnabled_",
          "type": "bool"
        }
      ],
      "name": "setIsPublicMintEnabled",
      "outputs": [],
      "stateMutability": "nonpayable",
      "type": "function"
    },
    {
      "inputs": [
        {
          "internalType": "bytes4",
          "name": "interfaceId",
          "type": "bytes4"
        }
      ],
      "name": "supportsInterface",
      "outputs": [
        {
          "internalType": "bool",
          "name": "",
          "type": "bool"
        }
      ],
      "stateMutability": "view",
      "type": "function"
    },
    {
      "inputs": [],
      "name": "symbol",
      "outputs": [
        {
          "internalType": "string",
          "name": "",
          "type": "string"
        }
      ],
      "stateMutability": "view",
      "type": "function"
    },
    {
      "inputs": [
        {
          "internalType": "uint256",
          "name": "tokenId_",
          "type": "uint256"
        }
      ],
      "name": "tokenURI",
      "outputs": [
        {
          "internalType": "string",
          "name": "",
          "type": "string"
        }
      ],
      "stateMutability": "view",
      "type": "function"
    },
    {
      "inputs": [],
      "name": "totalSupply",
      "outputs": [
        {
          "internalType": "uint256",
          "name": "",
          "type": "uint256"
        }
      ],
      "stateMutability": "view",
      "type": "function"
    },
    {
      "inputs": [
        {
          "internalType": "address",
          "name": "from",
          "type": "address"
        },
        {
          "internalType": "address",
          "name": "to",
          "type": "address"
        },
        {
          "internalType": "uint256",
          "name": "tokenId",
          "type": "uint256"
        }
      ],
      "name": "transferFrom",
      "outputs": [],
      "stateMutability": "nonpayable",
      "type": "function"
    },
    {
      "inputs": [
        {
          "internalType": "address",
          "name": "newOwner",
          "type": "address"
        }
      ],
      "name": "transferOwnership",
      "outputs": [],
      "stateMutability": "nonpayable",
      "type": "function"
    },
    {
      "inputs": [
        {
          "internalType": "address",
          "name": "",
          "type": "address"
        }
      ],
      "name": "walletMint",
      "outputs": [
        {
          "internalType": "uint256",
          "name": "",
          "type": "uint256"
        }
      ],
      "stateMutability": "view",
      "type": "function"
    },
    {
      "inputs": [],
      "name": "withdraw",
      "outputs": [],
      "stateMutability": "nonpayable",
      "type": "function"
    },
    {
      "inputs": [],
      "name": "withdrawWallet",
      "outputs": [
        {
          "internalType": "address payable",
          "name": "",
          "type": "address"
        }
      ],
      "stateMutability": "view",
      "type": "function"
    }
  ],
  "bytecode": "0x6080604052336040518060400160405280600d81526020017f4e617275746f557a756d616b69000000000000000000000000000000000000008152506040518060400160405280600281526020017f4e5500000000000000000000000000000000000000000000000000000000000081525081600090816200008291906200048b565b5080600190816200009491906200048b565b505050600073ffffffffffffffffffffffffffffffffffffffff168173ffffffffffffffffffffffffffffffffffffffff16036200010c5760006040517f1e4fbdf7000000000000000000000000000000000000000000000000000000008152600401620001039190620005b7565b60405180910390fd5b6200011d816200014b60201b60201c565b5066b1a2bc2ec500006008819055506000600981905550612710600a819055506005600b81905550620005d4565b6000600760009054906101000a900473ffffffffffffffffffffffffffffffffffffffff16905081600760006101000a81548173ffffffffffffffffffffffffffffffffffffffff021916908373ffffffffffffffffffffffffffffffffffffffff1602179055508173ffffffffffffffffffffffffffffffffffffffff168173ffffffffffffffffffffffffffffffffffffffff167f8be0079c531659141344cd1fd0a4f28419497f9722a3daafe3b4186f6b6457e060405160405180910390a35050565b600081519050919050565b7f4e487b7100000000000000000000000000000000000000000000000000000000600052604160045260246000fd5b7f4e487b7100000000000000000000000000000000000000000000000000000000600052602260045260246000fd5b600060028204905060018216806200029357607f821691505b602082108103620002a957620002a86200024b565b5b50919050565b60008190508160005260206000209050919050565b60006020601f8301049050919050565b600082821b905092915050565b600060088302620003137fffffffffffffffffffffffffffffffffffffffffffffffffffffffffffffffff82620002d4565b6200031f8683620002d4565b95508019841693508086168417925050509392505050565b6000819050919050565b6000819050919050565b60006200036c62000366620003608462000337565b62000341565b62000337565b9050919050565b6000819050919050565b62000388836200034b565b620003a0620003978262000373565b848454620002e1565b825550505050565b600090565b620003b7620003a8565b620003c48184846200037d565b505050565b5b81811015620003ec57620003e0600082620003ad565b600181019050620003ca565b5050565b601f8211156200043b576200040581620002af565b6200041084620002c4565b8101602085101562000420578190505b620004386200042f85620002c4565b830182620003c9565b50505b505050565b600082821c905092915050565b6000620004606000198460080262000440565b1980831691505092915050565b60006200047b83836200044d565b9150826002028217905092915050565b620004968262000211565b67ffffffffffffffff811115620004b257620004b16200021c565b5b620004be82546200027a565b620004cb828285620003f0565b600060209050601f831160018114620005035760008415620004ee578287015190505b620004fa85826200046d565b8655506200056a565b601f1984166200051386620002af565b60005b828110156200053d5784890151825560018201915060208501945060208101905062000516565b868310156200055d578489015162000559601f8916826200044d565b8355505b6001600288020188555050505b505050505050565b600073ffffffffffffffffffffffffffffffffffffffff82169050919050565b60006200059f8262000572565b9050919050565b620005b18162000592565b82525050565b6000602082019050620005ce6000830184620005a6565b92915050565b612f7980620005e46000396000f3fe60806040526004361061019c5760003560e01c80636817c76c116100ec578063a0712d681161008a578063c87b56dd11610064578063c87b56dd14610593578063d5abeb01146105d0578063e985e9c5146105fb578063f2fde38b146106385761019c565b8063a0712d6814610525578063a22cb46514610541578063b88d4fde1461056a5761019c565b806385d178f4116100c657806385d178f41461047b5780638da5cb5b146104a657806395652cfa146104d157806395d89b41146104fa5761019c565b80636817c76c146103fc57806370a0823114610427578063715018a6146104645761019c565b806318160ddd116101595780633ccfd60b116101335780633ccfd60b1461035457806342842e0e1461036b578063453c2310146103945780636352211e146103bf5761019c565b806318160ddd146102d75780632373ac221461030257806323b872dd1461032b5761019c565b80630116bc2d146101a157806301ffc9a7146101cc57806306fdde0314610209578063081812fc14610234578063095ea7b3146102715780631056ae311461029a575b600080fd5b3480156101ad57600080fd5b506101b6610661565b6040516101c39190611f40565b60405180910390f35b3480156101d857600080fd5b506101f360048036038101906101ee9190611fc7565b610674565b6040516102009190611f40565b60405180910390f35b34801561021557600080fd5b5061021e6106d5565b60405161022b9190612084565b60405180910390f35b34801561024057600080fd5b5061025b600480360381019061025691906120dc565b610767565b604051610268919061214a565b60405180910390f35b34801561027d57600080fd5b5061029860048036038101906102939190612191565b610783565b005b3480156102a657600080fd5b506102c160048036038101906102bc91906121d1565b610799565b6040516102ce919061220d565b60405180910390f35b3480156102e357600080fd5b506102ec6107b1565b6040516102f9919061220d565b60405180910390f35b34801561030e57600080fd5b5061032960048036038101906103249190612254565b6107b7565b005b34801561033757600080fd5b50610352600480360381019061034d9190612281565b6107dc565b005b34801561036057600080fd5b506103696108de565b005b34801561037757600080fd5b50610392600480360381019061038d9190612281565b6109b7565b005b3480156103a057600080fd5b506103a96109d7565b6040516103b6919061220d565b60405180910390f35b3480156103cb57600080fd5b506103e660048036038101906103e191906120dc565b6109dd565b6040516103f3919061214a565b60405180910390f35b34801561040857600080fd5b506104116109ef565b60405161041e919061220d565b60405180910390f35b34801561043357600080fd5b5061044e600480360381019061044991906121d1565b6109f5565b60405161045b919061220d565b60405180910390f35b34801561047057600080fd5b50610479610aaf565b005b34801561048757600080fd5b50610490610ac3565b60405161049d91906122f5565b60405180910390f35b3480156104b257600080fd5b506104bb610ae9565b6040516104c8919061214a565b60405180910390f35b3480156104dd57600080fd5b506104f860048036038101906104f39190612375565b610b13565b005b34801561050657600080fd5b5061050f610b31565b60405161051c9190612084565b60405180910390f35b61053f600480360381019061053a91906120dc565b610bc3565b005b34801561054d57600080fd5b50610568600480360381019061056391906123c2565b610d94565b005b34801561057657600080fd5b50610591600480360381019061058c9190612532565b610daa565b005b34801561059f57600080fd5b506105ba60048036038101906105b591906120dc565b610dc7565b6040516105c79190612084565b60405180910390f35b3480156105dc57600080fd5b506105e5610e72565b6040516105f2919061220d565b60405180910390f35b34801561060757600080fd5b50610622600480360381019061061d91906125b5565b610e78565b60405161062f9190611f40565b60405180910390f35b34801561064457600080fd5b5061065f600480360381019061065a91906121d1565b610f0c565b005b600c60009054906101000a900460ff1681565b6000634906490660e01b7bffffffffffffffffffffffffffffffffffffffffffffffffffffffff1916827bffffffffffffffffffffffffffffffffffffffffffffffffffffffff191614806106ce57506106cd82610f92565b5b9050919050565b6060600080546106e490612624565b80601f016020809104026020016040519081016040528092919081815260200182805461071090612624565b801561075d5780601f106107325761010080835404028352916020019161075d565b820191906000526020600020905b81548152906001019060200180831161074057829003601f168201915b5050505050905090565b600061077282611074565b5061077c826110fc565b9050919050565b6107958282610790611139565b611141565b5050565b600f6020528060005260406000206000915090505481565b60095481565b6107bf611153565b80600c60006101000a81548160ff02191690831515021790555050565b600073ffffffffffffffffffffffffffffffffffffffff168273ffffffffffffffffffffffffffffffffffffffff160361084e5760006040517f64a0ae92000000000000000000000000000000000000000000000000000000008152600401610845919061214a565b60405180910390fd5b6000610862838361085d611139565b6111da565b90508373ffffffffffffffffffffffffffffffffffffffff168173ffffffffffffffffffffffffffffffffffffffff16146108d8578382826040517f64283d7b0000000000000000000000000000000000000000000000000000000081526004016108cf93929190612655565b60405180910390fd5b50505050565b6108e6611153565b6000600e60009054906101000a900473ffffffffffffffffffffffffffffffffffffffff1673ffffffffffffffffffffffffffffffffffffffff164760405161092e906126bd565b60006040518083038185875af1925050503d806000811461096b576040519150601f19603f3d011682016040523d82523d6000602084013e610970565b606091505b50509050806109b4576040517f08c379a00000000000000000000000000000000000000000000000000000000081526004016109ab9061271e565b60405180910390fd5b50565b6109d283838360405180602001604052806000815250610daa565b505050565b600b5481565b60006109e882611074565b9050919050565b60085481565b60008073ffffffffffffffffffffffffffffffffffffffff168273ffffffffffffffffffffffffffffffffffffffff1603610a685760006040517f89c62b64000000000000000000000000000000000000000000000000000000008152600401610a5f919061214a565b60405180910390fd5b600360008373ffffffffffffffffffffffffffffffffffffffff1673ffffffffffffffffffffffffffffffffffffffff168152602001908152602001600020549050919050565b610ab7611153565b610ac160006113f4565b565b600e60009054906101000a900473ffffffffffffffffffffffffffffffffffffffff1681565b6000600760009054906101000a900473ffffffffffffffffffffffffffffffffffffffff16905090565b610b1b611153565b8181600d9182610b2c9291906128f5565b505050565b606060018054610b4090612624565b80601f0160208091040260200160405190810160405280929190818152602001828054610b6c90612624565b8015610bb95780601f10610b8e57610100808354040283529160200191610bb9565b820191906000526020600020905b815481529060010190602001808311610b9c57829003601f168201915b5050505050905090565b600c60009054906101000a900460ff16610c12576040517f08c379a0000000000000000000000000000000000000000000000000000000008152600401610c0990612a11565b60405180910390fd5b60085481610c209190612a60565b3414610c61576040517f08c379a0000000000000000000000000000000000000000000000000000000008152600401610c5890612aee565b60405180910390fd5b600a5481600954610c729190612b0e565b1115610cb3576040517f08c379a0000000000000000000000000000000000000000000000000000000008152600401610caa90612b8e565b60405180910390fd5b600b5481600f60003373ffffffffffffffffffffffffffffffffffffffff1673ffffffffffffffffffffffffffffffffffffffff16815260200190815260200160002054610d019190612b0e565b1115610d42576040517f08c379a0000000000000000000000000000000000000000000000000000000008152600401610d3990612bfa565b60405180910390fd5b60005b81811015610d905760006001600954610d5e9190612b0e565b905060096000815480929190610d7390612c1a565b9190505550610d8233826114ba565b508080600101915050610d45565b5050565b610da6610d9f611139565b83836114d8565b5050565b610db58484846107dc565b610dc184848484611647565b50505050565b6060600073ffffffffffffffffffffffffffffffffffffffff16610dea836109dd565b73ffffffffffffffffffffffffffffffffffffffff1603610e40576040517f08c379a0000000000000000000000000000000000000000000000000000000008152600401610e3790612cae565b60405180910390fd5b600d610e4b836117fe565b604051602001610e5c929190612dd9565b6040516020818303038152906040529050919050565b600a5481565b6000600560008473ffffffffffffffffffffffffffffffffffffffff1673ffffffffffffffffffffffffffffffffffffffff16815260200190815260200160002060008373ffffffffffffffffffffffffffffffffffffffff1673ffffffffffffffffffffffffffffffffffffffff16815260200190815260200160002060009054906101000a900460ff16905092915050565b610f14611153565b600073ffffffffffffffffffffffffffffffffffffffff168173ffffffffffffffffffffffffffffffffffffffff1603610f865760006040517f1e4fbdf7000000000000000000000000000000000000000000000000000000008152600401610f7d919061214a565b60405180910390fd5b610f8f816113f4565b50565b60007f80ac58cd000000000000000000000000000000000000000000000000000000007bffffffffffffffffffffffffffffffffffffffffffffffffffffffff1916827bffffffffffffffffffffffffffffffffffffffffffffffffffffffff1916148061105d57507f5b5e139f000000000000000000000000000000000000000000000000000000007bffffffffffffffffffffffffffffffffffffffffffffffffffffffff1916827bffffffffffffffffffffffffffffffffffffffffffffffffffffffff1916145b8061106d575061106c826118cc565b5b9050919050565b60008061108083611936565b9050600073ffffffffffffffffffffffffffffffffffffffff168173ffffffffffffffffffffffffffffffffffffffff16036110f357826040517f7e2732890000000000000000000000000000000000000000000000000000000081526004016110ea919061220d565b60405180910390fd5b80915050919050565b60006004600083815260200190815260200160002060009054906101000a900473ffffffffffffffffffffffffffffffffffffffff169050919050565b600033905090565b61114e8383836001611973565b505050565b61115b611139565b73ffffffffffffffffffffffffffffffffffffffff16611179610ae9565b73ffffffffffffffffffffffffffffffffffffffff16146111d85761119c611139565b6040517f118cdaa70000000000000000000000000000000000000000000000000000000081526004016111cf919061214a565b60405180910390fd5b565b6000806111e684611936565b9050600073ffffffffffffffffffffffffffffffffffffffff168373ffffffffffffffffffffffffffffffffffffffff161461122857611227818486611b38565b5b600073ffffffffffffffffffffffffffffffffffffffff168173ffffffffffffffffffffffffffffffffffffffff16146112b95761126a600085600080611973565b6001600360008373ffffffffffffffffffffffffffffffffffffffff1673ffffffffffffffffffffffffffffffffffffffff168152602001908152602001600020600082825403925050819055505b600073ffffffffffffffffffffffffffffffffffffffff168573ffffffffffffffffffffffffffffffffffffffff161461133c576001600360008773ffffffffffffffffffffffffffffffffffffffff1673ffffffffffffffffffffffffffffffffffffffff168152602001908152602001600020600082825401925050819055505b846002600086815260200190815260200160002060006101000a81548173ffffffffffffffffffffffffffffffffffffffff021916908373ffffffffffffffffffffffffffffffffffffffff160217905550838573ffffffffffffffffffffffffffffffffffffffff168273ffffffffffffffffffffffffffffffffffffffff167fddf252ad1be2c89b69c2b068fc378daa952ba7f163c4a11628f55a4df523b3ef60405160405180910390a4809150509392505050565b6000600760009054906101000a900473ffffffffffffffffffffffffffffffffffffffff16905081600760006101000a81548173ffffffffffffffffffffffffffffffffffffffff021916908373ffffffffffffffffffffffffffffffffffffffff1602179055508173ffffffffffffffffffffffffffffffffffffffff168173ffffffffffffffffffffffffffffffffffffffff167f8be0079c531659141344cd1fd0a4f28419497f9722a3daafe3b4186f6b6457e060405160405180910390a35050565b6114d4828260405180602001604052806000815250611bfc565b5050565b600073ffffffffffffffffffffffffffffffffffffffff168273ffffffffffffffffffffffffffffffffffffffff160361154957816040517f5b08ba18000000000000000000000000000000000000000000000000000000008152600401611540919061214a565b60405180910390fd5b80600560008573ffffffffffffffffffffffffffffffffffffffff1673ffffffffffffffffffffffffffffffffffffffff16815260200190815260200160002060008473ffffffffffffffffffffffffffffffffffffffff1673ffffffffffffffffffffffffffffffffffffffff16815260200190815260200160002060006101000a81548160ff0219169083151502179055508173ffffffffffffffffffffffffffffffffffffffff168373ffffffffffffffffffffffffffffffffffffffff167f17307eab39ab6107e8899845ad3d59bd9653f200f220920489ca2b5937696c318360405161163a9190611f40565b60405180910390a3505050565b60008373ffffffffffffffffffffffffffffffffffffffff163b11156117f8578273ffffffffffffffffffffffffffffffffffffffff1663150b7a0261168b611139565b8685856040518563ffffffff1660e01b81526004016116ad9493929190612e5d565b6020604051808303816000875af19250505080156116e957506040513d601f19601f820116820180604052508101906116e69190612ebe565b60015b61176d573d8060008114611719576040519150601f19603f3d011682016040523d82523d6000602084013e61171e565b606091505b50600081510361176557836040517f64a0ae9200000000000000000000000000000000000000000000000000000000815260040161175c919061214a565b60405180910390fd5b805181602001fd5b63150b7a0260e01b7bffffffffffffffffffffffffffffffffffffffffffffffffffffffff1916817bffffffffffffffffffffffffffffffffffffffffffffffffffffffff1916146117f657836040517f64a0ae920000000000000000000000000000000000000000000000000000000081526004016117ed919061214a565b60405180910390fd5b505b50505050565b60606000600161180d84611c18565b01905060008167ffffffffffffffff81111561182c5761182b612407565b5b6040519080825280601f01601f19166020018201604052801561185e5781602001600182028036833780820191505090505b509050600082602001820190505b6001156118c1578080600190039150507f3031323334353637383961626364656600000000000000000000000000000000600a86061a8153600a85816118b5576118b4612eeb565b5b0494506000850361186c575b819350505050919050565b60007f01ffc9a7000000000000000000000000000000000000000000000000000000007bffffffffffffffffffffffffffffffffffffffffffffffffffffffff1916827bffffffffffffffffffffffffffffffffffffffffffffffffffffffff1916149050919050565b60006002600083815260200190815260200160002060009054906101000a900473ffffffffffffffffffffffffffffffffffffffff169050919050565b80806119ac5750600073ffffffffffffffffffffffffffffffffffffffff168273ffffffffffffffffffffffffffffffffffffffff1614155b15611ae05760006119bc84611074565b9050600073ffffffffffffffffffffffffffffffffffffffff168373ffffffffffffffffffffffffffffffffffffffff1614158015611a2757508273ffffffffffffffffffffffffffffffffffffffff168173ffffffffffffffffffffffffffffffffffffffff1614155b8015611a3a5750611a388184610e78565b155b15611a7c57826040517fa9fbf51f000000000000000000000000000000000000000000000000000000008152600401611a73919061214a565b60405180910390fd5b8115611ade57838573ffffffffffffffffffffffffffffffffffffffff168273ffffffffffffffffffffffffffffffffffffffff167f8c5be1e5ebec7d5bd14f71427d1e84f3dd0314c0f7b2291e5b200ac8c7c3b92560405160405180910390a45b505b836004600085815260200190815260200160002060006101000a81548173ffffffffffffffffffffffffffffffffffffffff021916908373ffffffffffffffffffffffffffffffffffffffff16021790555050505050565b611b43838383611d6b565b611bf757600073ffffffffffffffffffffffffffffffffffffffff168373ffffffffffffffffffffffffffffffffffffffff1603611bb857806040517f7e273289000000000000000000000000000000000000000000000000000000008152600401611baf919061220d565b60405180910390fd5b81816040517f177e802f000000000000000000000000000000000000000000000000000000008152600401611bee929190612f1a565b60405180910390fd5b505050565b611c068383611e2c565b611c136000848484611647565b505050565b600080600090507a184f03e93ff9f4daa797ed6e38ed64bf6a1f0100000000000000008310611c76577a184f03e93ff9f4daa797ed6e38ed64bf6a1f0100000000000000008381611c6c57611c6b612eeb565b5b0492506040810190505b6d04ee2d6d415b85acef81000000008310611cb3576d04ee2d6d415b85acef81000000008381611ca957611ca8612eeb565b5b0492506020810190505b662386f26fc100008310611ce257662386f26fc100008381611cd857611cd7612eeb565b5b0492506010810190505b6305f5e1008310611d0b576305f5e1008381611d0157611d00612eeb565b5b0492506008810190505b6127108310611d30576127108381611d2657611d25612eeb565b5b0492506004810190505b60648310611d535760648381611d4957611d48612eeb565b5b0492506002810190505b600a8310611d62576001810190505b80915050919050565b60008073ffffffffffffffffffffffffffffffffffffffff168373ffffffffffffffffffffffffffffffffffffffff1614158015611e2357508273ffffffffffffffffffffffffffffffffffffffff168473ffffffffffffffffffffffffffffffffffffffff161480611de45750611de38484610e78565b5b80611e2257508273ffffffffffffffffffffffffffffffffffffffff16611e0a836110fc565b73ffffffffffffffffffffffffffffffffffffffff16145b5b90509392505050565b600073ffffffffffffffffffffffffffffffffffffffff168273ffffffffffffffffffffffffffffffffffffffff1603611e9e5760006040517f64a0ae92000000000000000000000000000000000000000000000000000000008152600401611e95919061214a565b60405180910390fd5b6000611eac838360006111da565b9050600073ffffffffffffffffffffffffffffffffffffffff168173ffffffffffffffffffffffffffffffffffffffff1614611f205760006040517f73c6ac6e000000000000000000000000000000000000000000000000000000008152600401611f17919061214a565b60405180910390fd5b505050565b60008115159050919050565b611f3a81611f25565b82525050565b6000602082019050611f556000830184611f31565b92915050565b6000604051905090565b600080fd5b600080fd5b60007fffffffff0000000000000000000000000000000000000000000000000000000082169050919050565b611fa481611f6f565b8114611faf57600080fd5b50565b600081359050611fc181611f9b565b92915050565b600060208284031215611fdd57611fdc611f65565b5b6000611feb84828501611fb2565b91505092915050565b600081519050919050565b600082825260208201905092915050565b60005b8381101561202e578082015181840152602081019050612013565b60008484015250505050565b6000601f19601f8301169050919050565b600061205682611ff4565b6120608185611fff565b9350612070818560208601612010565b6120798161203a565b840191505092915050565b6000602082019050818103600083015261209e818461204b565b905092915050565b6000819050919050565b6120b9816120a6565b81146120c457600080fd5b50565b6000813590506120d6816120b0565b92915050565b6000602082840312156120f2576120f1611f65565b5b6000612100848285016120c7565b91505092915050565b600073ffffffffffffffffffffffffffffffffffffffff82169050919050565b600061213482612109565b9050919050565b61214481612129565b82525050565b600060208201905061215f600083018461213b565b92915050565b61216e81612129565b811461217957600080fd5b50565b60008135905061218b81612165565b92915050565b600080604083850312156121a8576121a7611f65565b5b60006121b68582860161217c565b92505060206121c7858286016120c7565b9150509250929050565b6000602082840312156121e7576121e6611f65565b5b60006121f58482850161217c565b91505092915050565b612207816120a6565b82525050565b600060208201905061222260008301846121fe565b92915050565b61223181611f25565b811461223c57600080fd5b50565b60008135905061224e81612228565b92915050565b60006020828403121561226a57612269611f65565b5b60006122788482850161223f565b91505092915050565b60008060006060848603121561229a57612299611f65565b5b60006122a88682870161217c565b93505060206122b98682870161217c565b92505060406122ca868287016120c7565b9150509250925092565b60006122df82612109565b9050919050565b6122ef816122d4565b82525050565b600060208201905061230a60008301846122e6565b92915050565b600080fd5b600080fd5b600080fd5b60008083601f84011261233557612334612310565b5b8235905067ffffffffffffffff81111561235257612351612315565b5b60208301915083600182028301111561236e5761236d61231a565b5b9250929050565b6000806020838503121561238c5761238b611f65565b5b600083013567ffffffffffffffff8111156123aa576123a9611f6a565b5b6123b68582860161231f565b92509250509250929050565b600080604083850312156123d9576123d8611f65565b5b60006123e78582860161217c565b92505060206123f88582860161223f565b9150509250929050565b600080fd5b7f4e487b7100000000000000000000000000000000000000000000000000000000600052604160045260246000fd5b61243f8261203a565b810181811067ffffffffffffffff8211171561245e5761245d612407565b5b80604052505050565b6000612471611f5b565b905061247d8282612436565b919050565b600067ffffffffffffffff82111561249d5761249c612407565b5b6124a68261203a565b9050602081019050919050565b82818337600083830152505050565b60006124d56124d084612482565b612467565b9050828152602081018484840111156124f1576124f0612402565b5b6124fc8482856124b3565b509392505050565b600082601f83011261251957612518612310565b5b81356125298482602086016124c2565b91505092915050565b6000806000806080858703121561254c5761254b611f65565b5b600061255a8782880161217c565b945050602061256b8782880161217c565b935050604061257c878288016120c7565b925050606085013567ffffffffffffffff81111561259d5761259c611f6a565b5b6125a987828801612504565b91505092959194509250565b600080604083850312156125cc576125cb611f65565b5b60006125da8582860161217c565b92505060206125eb8582860161217c565b9150509250929050565b7f4e487b7100000000000000000000000000000000000000000000000000000000600052602260045260246000fd5b6000600282049050600182168061263c57607f821691505b60208210810361264f5761264e6125f5565b5b50919050565b600060608201905061266a600083018661213b565b61267760208301856121fe565b612684604083018461213b565b949350505050565b600081905092915050565b50565b60006126a760008361268c565b91506126b282612697565b600082019050919050565b60006126c88261269a565b9150819050919050565b7f7769746864726177206661696c65640000000000000000000000000000000000600082015250565b6000612708600f83611fff565b9150612713826126d2565b602082019050919050565b60006020820190508181036000830152612737816126fb565b9050919050565b600082905092915050565b60008190508160005260206000209050919050565b60006020601f8301049050919050565b600082821b905092915050565b6000600883026127ab7fffffffffffffffffffffffffffffffffffffffffffffffffffffffffffffffff8261276e565b6127b5868361276e565b95508019841693508086168417925050509392505050565b6000819050919050565b60006127f26127ed6127e8846120a6565b6127cd565b6120a6565b9050919050565b6000819050919050565b61280c836127d7565b612820612818826127f9565b84845461277b565b825550505050565b600090565b612835612828565b612840818484612803565b505050565b5b818110156128645761285960008261282d565b600181019050612846565b5050565b601f8211156128a95761287a81612749565b6128838461275e565b81016020851015612892578190505b6128a661289e8561275e565b830182612845565b50505b505050565b600082821c905092915050565b60006128cc600019846008026128ae565b1980831691505092915050565b60006128e583836128bb565b9150826002028217905092915050565b6128ff838361273e565b67ffffffffffffffff81111561291857612917612407565b5b6129228254612624565b61292d828285612868565b6000601f83116001811461295c576000841561294a578287013590505b61295485826128d9565b8655506129bc565b601f19841661296a86612749565b60005b828110156129925784890135825560018201915060208501945060208101905061296d565b868310156129af57848901356129ab601f8916826128bb565b8355505b6001600288020188555050505b50505050505050565b7f4d696e74696e67206e6f7420656e61626c656400000000000000000000000000600082015250565b60006129fb601383611fff565b9150612a06826129c5565b602082019050919050565b60006020820190508181036000830152612a2a816129ee565b9050919050565b7f4e487b7100000000000000000000000000000000000000000000000000000000600052601160045260246000fd5b6000612a6b826120a6565b9150612a76836120a6565b9250828202612a84816120a6565b91508282048414831517612a9b57612a9a612a31565b5b5092915050565b7f77726f6e67206d696e742076616c756500000000000000000000000000000000600082015250565b6000612ad8601083611fff565b9150612ae382612aa2565b602082019050919050565b60006020820190508181036000830152612b0781612acb565b9050919050565b6000612b19826120a6565b9150612b24836120a6565b9250828201905080821115612b3c57612b3b612a31565b5b92915050565b7f536f6c64206f7574000000000000000000000000000000000000000000000000600082015250565b6000612b78600883611fff565b9150612b8382612b42565b602082019050919050565b60006020820190508181036000830152612ba781612b6b565b9050919050565b7f657863656564206d61782077616c6c6574000000000000000000000000000000600082015250565b6000612be4601183611fff565b9150612bef82612bae565b602082019050919050565b60006020820190508181036000830152612c1381612bd7565b9050919050565b6000612c25826120a6565b91507fffffffffffffffffffffffffffffffffffffffffffffffffffffffffffffffff8203612c5757612c56612a31565b5b600182019050919050565b7f546f6b656e20646f6573206e6f74206578697374210000000000000000000000600082015250565b6000612c98601583611fff565b9150612ca382612c62565b602082019050919050565b60006020820190508181036000830152612cc781612c8b565b9050919050565b600081905092915050565b60008154612ce681612624565b612cf08186612cce565b94506001821660008114612d0b5760018114612d2057612d53565b60ff1983168652811515820286019350612d53565b612d2985612749565b60005b83811015612d4b57815481890152600182019150602081019050612d2c565b838801955050505b50505092915050565b6000612d6782611ff4565b612d718185612cce565b9350612d81818560208601612010565b80840191505092915050565b7f2e6a736f6e000000000000000000000000000000000000000000000000000000600082015250565b6000612dc3600583612cce565b9150612dce82612d8d565b600582019050919050565b6000612de58285612cd9565b9150612df18284612d5c565b9150612dfc82612db6565b91508190509392505050565b600081519050919050565b600082825260208201905092915050565b6000612e2f82612e08565b612e398185612e13565b9350612e49818560208601612010565b612e528161203a565b840191505092915050565b6000608082019050612e72600083018761213b565b612e7f602083018661213b565b612e8c60408301856121fe565b8181036060830152612e9e8184612e24565b905095945050505050565b600081519050612eb881611f9b565b92915050565b600060208284031215612ed457612ed3611f65565b5b6000612ee284828501612ea9565b91505092915050565b7f4e487b7100000000000000000000000000000000000000000000000000000000600052601260045260246000fd5b6000604082019050612f2f600083018561213b565b612f3c60208301846121fe565b939250505056fea2646970667358221220d46dab929e9e54bf9c8fe5c4568dee5868f83fd3160571bb3a669e91f029d87b64736f6c63430008180033",
  "linkReferences": {},
  "deployedLinkReferences": {}
}